{
  "_format": "hh-sol-artifact-1",
  "contractName": "DEX",
  "sourceName": "contracts/DEX.sol",
  "abi": [
    {
      "inputs": [
        {
          "internalType": "address",
          "name": "tokenAddress",
          "type": "address"
        }
      ],
      "stateMutability": "nonpayable",
      "type": "constructor"
    },
    {
      "inputs": [
        {
          "internalType": "address",
          "name": "owner",
          "type": "address"
        }
      ],
      "name": "OwnableInvalidOwner",
      "type": "error"
    },
    {
      "inputs": [
        {
          "internalType": "address",
          "name": "account",
          "type": "address"
        }
      ],
      "name": "OwnableUnauthorizedAccount",
      "type": "error"
    },
    {
      "anonymous": false,
      "inputs": [
        {
          "indexed": false,
          "internalType": "uint256",
          "name": "amount",
          "type": "uint256"
        }
      ],
      "name": "Bought",
      "type": "event"
    },
    {
      "anonymous": false,
      "inputs": [
        {
          "indexed": true,
          "internalType": "address",
          "name": "previousOwner",
          "type": "address"
        },
        {
          "indexed": true,
          "internalType": "address",
          "name": "newOwner",
          "type": "address"
        }
      ],
      "name": "OwnershipTransferred",
      "type": "event"
    },
    {
      "anonymous": false,
      "inputs": [
        {
          "indexed": false,
          "internalType": "uint256",
          "name": "amount",
          "type": "uint256"
        }
      ],
      "name": "Sold",
      "type": "event"
    },
    {
      "inputs": [],
      "name": "buy",
      "outputs": [],
      "stateMutability": "payable",
      "type": "function"
    },
    {
      "inputs": [],
      "name": "owner",
      "outputs": [
        {
          "internalType": "address",
          "name": "",
          "type": "address"
        }
      ],
      "stateMutability": "view",
      "type": "function"
    },
    {
      "inputs": [],
      "name": "renounceOwnership",
      "outputs": [],
      "stateMutability": "nonpayable",
      "type": "function"
    },
    {
      "inputs": [
        {
          "internalType": "uint256",
          "name": "amount",
          "type": "uint256"
        }
      ],
      "name": "sell",
      "outputs": [],
      "stateMutability": "nonpayable",
      "type": "function"
    },
    {
      "inputs": [],
      "name": "token",
      "outputs": [
        {
          "internalType": "contract IERC20",
          "name": "",
          "type": "address"
        }
      ],
      "stateMutability": "view",
      "type": "function"
    },
    {
      "inputs": [
        {
          "internalType": "address",
          "name": "newOwner",
          "type": "address"
        }
      ],
      "name": "transferOwnership",
      "outputs": [],
      "stateMutability": "nonpayable",
      "type": "function"
    },
    {
      "inputs": [
        {
          "internalType": "uint256",
          "name": "amount",
          "type": "uint256"
        }
      ],
      "name": "withdraw",
      "outputs": [],
      "stateMutability": "nonpayable",
      "type": "function"
    },
    {
      "inputs": [
        {
          "internalType": "uint256",
          "name": "amount",
          "type": "uint256"
        }
      ],
      "name": "withdrawToken",
      "outputs": [],
      "stateMutability": "nonpayable",
      "type": "function"
    },
    {
      "stateMutability": "payable",
      "type": "receive"
    }
  ],
  "bytecode": "0x60806040523480156200001157600080fd5b50604051620010f5380380620010f5833981810160405281019062000037919062000235565b33600073ffffffffffffffffffffffffffffffffffffffff168173ffffffffffffffffffffffffffffffffffffffff1603620000ad5760006040517f1e4fbdf7000000000000000000000000000000000000000000000000000000008152600401620000a4919062000278565b60405180910390fd5b620000be816200010760201b60201c565b5080600160006101000a81548173ffffffffffffffffffffffffffffffffffffffff021916908373ffffffffffffffffffffffffffffffffffffffff1602179055505062000295565b60008060009054906101000a900473ffffffffffffffffffffffffffffffffffffffff169050816000806101000a81548173ffffffffffffffffffffffffffffffffffffffff021916908373ffffffffffffffffffffffffffffffffffffffff1602179055508173ffffffffffffffffffffffffffffffffffffffff168173ffffffffffffffffffffffffffffffffffffffff167f8be0079c531659141344cd1fd0a4f28419497f9722a3daafe3b4186f6b6457e060405160405180910390a35050565b600080fd5b600073ffffffffffffffffffffffffffffffffffffffff82169050919050565b6000620001fd82620001d0565b9050919050565b6200020f81620001f0565b81146200021b57600080fd5b50565b6000815190506200022f8162000204565b92915050565b6000602082840312156200024e576200024d620001cb565b5b60006200025e848285016200021e565b91505092915050565b6200027281620001f0565b82525050565b60006020820190506200028f600083018462000267565b92915050565b610e5080620002a56000396000f3fe60806040526004361061007f5760003560e01c8063a6f2ae3a1161004e578063a6f2ae3a1461011f578063e4849b3214610129578063f2fde38b14610152578063fc0c546a1461017b57610086565b80632e1a7d4d1461008b57806350baa622146100b4578063715018a6146100dd5780638da5cb5b146100f457610086565b3661008657005b600080fd5b34801561009757600080fd5b506100b260048036038101906100ad919061097d565b6101a6565b005b3480156100c057600080fd5b506100db60048036038101906100d6919061097d565b6101ff565b005b3480156100e957600080fd5b506100f26102b2565b005b34801561010057600080fd5b506101096102c6565b60405161011691906109eb565b60405180910390f35b6101276102ef565b005b34801561013557600080fd5b50610150600480360381019061014b919061097d565b6104f6565b005b34801561015e57600080fd5b5061017960048036038101906101749190610a32565b610743565b005b34801561018757600080fd5b506101906107c9565b60405161019d9190610abe565b60405180910390f35b6101ae6107ef565b6101b66102c6565b73ffffffffffffffffffffffffffffffffffffffff166108fc829081150290604051600060405180830381858888f193505050501580156101fb573d6000803e3d6000fd5b5050565b6102076107ef565b600160009054906101000a900473ffffffffffffffffffffffffffffffffffffffff1673ffffffffffffffffffffffffffffffffffffffff1663a9059cbb61024d6102c6565b836040518363ffffffff1660e01b815260040161026b929190610ae8565b6020604051808303816000875af115801561028a573d6000803e3d6000fd5b505050506040513d601f19601f820116820180604052508101906102ae9190610b49565b5050565b6102ba6107ef565b6102c46000610876565b565b60008060009054906101000a900473ffffffffffffffffffffffffffffffffffffffff16905090565b60003490506000600160009054906101000a900473ffffffffffffffffffffffffffffffffffffffff1673ffffffffffffffffffffffffffffffffffffffff166370a08231306040518263ffffffff1660e01b815260040161035191906109eb565b602060405180830381865afa15801561036e573d6000803e3d6000fd5b505050506040513d601f19601f820116820180604052508101906103929190610b8b565b9050600082116103d7576040517f08c379a00000000000000000000000000000000000000000000000000000000081526004016103ce90610c15565b60405180910390fd5b8082111561041a576040517f08c379a000000000000000000000000000000000000000000000000000000000815260040161041190610c81565b60405180910390fd5b600160009054906101000a900473ffffffffffffffffffffffffffffffffffffffff1673ffffffffffffffffffffffffffffffffffffffff1663a9059cbb33846040518363ffffffff1660e01b8152600401610477929190610ae8565b6020604051808303816000875af1158015610496573d6000803e3d6000fd5b505050506040513d601f19601f820116820180604052508101906104ba9190610b49565b507f4e08ba899977cf7d4c2964bce71c6b9a7ef76ee5166a4c1249a1e08016e33ef1826040516104ea9190610ca1565b60405180910390a15050565b60008111610539576040517f08c379a000000000000000000000000000000000000000000000000000000000815260040161053090610d2e565b60405180910390fd5b6000600160009054906101000a900473ffffffffffffffffffffffffffffffffffffffff1673ffffffffffffffffffffffffffffffffffffffff1663dd62ed3e33306040518363ffffffff1660e01b8152600401610598929190610d4e565b602060405180830381865afa1580156105b5573d6000803e3d6000fd5b505050506040513d601f19601f820116820180604052508101906105d99190610b8b565b90508181101561061e576040517f08c379a000000000000000000000000000000000000000000000000000000000815260040161061590610dc3565b60405180910390fd5b600160009054906101000a900473ffffffffffffffffffffffffffffffffffffffff1673ffffffffffffffffffffffffffffffffffffffff166323b872dd3330856040518463ffffffff1660e01b815260040161067d93929190610de3565b6020604051808303816000875af115801561069c573d6000803e3d6000fd5b505050506040513d601f19601f820116820180604052508101906106c09190610b49565b503373ffffffffffffffffffffffffffffffffffffffff166108fc839081150290604051600060405180830381858888f19350505050158015610707573d6000803e3d6000fd5b507f92f64ca637d023f354075a4be751b169c1a8a9ccb6d33cdd0cb3520543995727826040516107379190610ca1565b60405180910390a15050565b61074b6107ef565b600073ffffffffffffffffffffffffffffffffffffffff168173ffffffffffffffffffffffffffffffffffffffff16036107bd5760006040517f1e4fbdf70000000000000000000000000000000000000000000000000000000081526004016107b491906109eb565b60405180910390fd5b6107c681610876565b50565b600160009054906101000a900473ffffffffffffffffffffffffffffffffffffffff1681565b6107f761093a565b73ffffffffffffffffffffffffffffffffffffffff166108156102c6565b73ffffffffffffffffffffffffffffffffffffffff16146108745761083861093a565b6040517f118cdaa700000000000000000000000000000000000000000000000000000000815260040161086b91906109eb565b60405180910390fd5b565b60008060009054906101000a900473ffffffffffffffffffffffffffffffffffffffff169050816000806101000a81548173ffffffffffffffffffffffffffffffffffffffff021916908373ffffffffffffffffffffffffffffffffffffffff1602179055508173ffffffffffffffffffffffffffffffffffffffff168173ffffffffffffffffffffffffffffffffffffffff167f8be0079c531659141344cd1fd0a4f28419497f9722a3daafe3b4186f6b6457e060405160405180910390a35050565b600033905090565b600080fd5b6000819050919050565b61095a81610947565b811461096557600080fd5b50565b60008135905061097781610951565b92915050565b60006020828403121561099357610992610942565b5b60006109a184828501610968565b91505092915050565b600073ffffffffffffffffffffffffffffffffffffffff82169050919050565b60006109d5826109aa565b9050919050565b6109e5816109ca565b82525050565b6000602082019050610a0060008301846109dc565b92915050565b610a0f816109ca565b8114610a1a57600080fd5b50565b600081359050610a2c81610a06565b92915050565b600060208284031215610a4857610a47610942565b5b6000610a5684828501610a1d565b91505092915050565b6000819050919050565b6000610a84610a7f610a7a846109aa565b610a5f565b6109aa565b9050919050565b6000610a9682610a69565b9050919050565b6000610aa882610a8b565b9050919050565b610ab881610a9d565b82525050565b6000602082019050610ad36000830184610aaf565b92915050565b610ae281610947565b82525050565b6000604082019050610afd60008301856109dc565b610b0a6020830184610ad9565b9392505050565b60008115159050919050565b610b2681610b11565b8114610b3157600080fd5b50565b600081519050610b4381610b1d565b92915050565b600060208284031215610b5f57610b5e610942565b5b6000610b6d84828501610b34565b91505092915050565b600081519050610b8581610951565b92915050565b600060208284031215610ba157610ba0610942565b5b6000610baf84828501610b76565b91505092915050565b600082825260208201905092915050565b7f596f75206e65656420746f2073656e6420736f6d652045746865720000000000600082015250565b6000610bff601b83610bb8565b9150610c0a82610bc9565b602082019050919050565b60006020820190508181036000830152610c2e81610bf2565b9050919050565b7f4e6f7420656e6f75676820746f6b656e7320696e207468652072657365727665600082015250565b6000610c6b602083610bb8565b9150610c7682610c35565b602082019050919050565b60006020820190508181036000830152610c9a81610c5e565b9050919050565b6000602082019050610cb66000830184610ad9565b92915050565b7f596f75206e65656420746f2073656c6c206174206c6561737420736f6d65207460008201527f6f6b656e73000000000000000000000000000000000000000000000000000000602082015250565b6000610d18602583610bb8565b9150610d2382610cbc565b604082019050919050565b60006020820190508181036000830152610d4781610d0b565b9050919050565b6000604082019050610d6360008301856109dc565b610d7060208301846109dc565b9392505050565b7f436865636b2074686520746f6b656e20616c6c6f77616e636500000000000000600082015250565b6000610dad601983610bb8565b9150610db882610d77565b602082019050919050565b60006020820190508181036000830152610ddc81610da0565b9050919050565b6000606082019050610df860008301866109dc565b610e0560208301856109dc565b610e126040830184610ad9565b94935050505056fea26469706673582212207d4b7ac736436b52810643efcd9a0d0f58d4b62625550781cbcf79c5066856b164736f6c63430008180033",
  "linkReferences": {},
  "deployedLinkReferences": {}
}